{
	"catcoin.sol": {
		"catcoin_ico": {
			"abi": [
				{
					"inputs": [
						{
							"internalType": "address",
							"name": "investor",
							"type": "address"
						},
						{
							"internalType": "uint256",
							"name": "usd_invested",
							"type": "uint256"
						}
					],
					"name": "buy_catcoins",
					"outputs": [
						{
							"internalType": "uint256",
							"name": "",
							"type": "uint256"
						}
					],
					"stateMutability": "nonpayable",
					"type": "function"
				},
				{
					"inputs": [
						{
							"internalType": "address",
							"name": "investor",
							"type": "address"
						}
					],
					"name": "equity_in_catcoins",
					"outputs": [
						{
							"internalType": "uint256",
							"name": "",
							"type": "uint256"
						}
					],
					"stateMutability": "view",
					"type": "function"
				},
				{
					"inputs": [
						{
							"internalType": "address",
							"name": "investor",
							"type": "address"
						}
					],
					"name": "equity_in_usd",
					"outputs": [
						{
							"internalType": "uint256",
							"name": "",
							"type": "uint256"
						}
					],
					"stateMutability": "view",
					"type": "function"
				},
				{
					"inputs": [],
					"name": "max_catcoins",
					"outputs": [
						{
							"internalType": "uint256",
							"name": "",
							"type": "uint256"
						}
					],
					"stateMutability": "view",
					"type": "function"
				},
				{
					"inputs": [
						{
							"internalType": "address",
							"name": "investor",
							"type": "address"
						},
						{
							"internalType": "uint256",
							"name": "catcoins_sold",
							"type": "uint256"
						}
					],
					"name": "sell_catcoins",
					"outputs": [
						{
							"internalType": "uint256",
							"name": "",
							"type": "uint256"
						}
					],
					"stateMutability": "nonpayable",
					"type": "function"
				},
				{
					"inputs": [],
					"name": "total_catcoins_bought",
					"outputs": [
						{
							"internalType": "uint256",
							"name": "",
							"type": "uint256"
						}
					],
					"stateMutability": "view",
					"type": "function"
				},
				{
					"inputs": [],
					"name": "usd_to_catcoin",
					"outputs": [
						{
							"internalType": "uint256",
							"name": "",
							"type": "uint256"
						}
					],
					"stateMutability": "view",
					"type": "function"
				}
			],
			"devdoc": {
				"kind": "dev",
				"methods": {},
				"version": 1
			},
			"evm": {
				"assembly": "    /* \"catcoin.sol\":57:2248  contract catcoin_ico {... */\n  mstore(0x40, 0x80)\n    /* \"catcoin.sol\":176:183  1000000 */\n  0x0f4240\n    /* \"catcoin.sol\":149:183  uint public max_catcoins = 1000000 */\n  0x00\n  sstore\n    /* \"catcoin.sol\":275:279  1000 */\n  0x03e8\n    /* \"catcoin.sol\":246:279  uint public usd_to_catcoin = 1000 */\n  0x01\n  sstore\n    /* \"catcoin.sol\":404:405  0 */\n  0x00\n    /* \"catcoin.sol\":368:405  uint public total_catcoins_bought = 0 */\n  0x02\n  sstore\n    /* \"catcoin.sol\":57:2248  contract catcoin_ico {... */\n  callvalue\n  dup1\n  iszero\n  tag_1\n  jumpi\n  0x00\n  dup1\n  revert\ntag_1:\n  pop\n  dataSize(sub_0)\n  dup1\n  dataOffset(sub_0)\n  0x00\n  codecopy\n  0x00\n  return\nstop\n\nsub_0: assembly {\n        /* \"catcoin.sol\":57:2248  contract catcoin_ico {... */\n      mstore(0x40, 0x80)\n      callvalue\n      dup1\n      iszero\n      tag_1\n      jumpi\n      0x00\n      dup1\n      revert\n    tag_1:\n      pop\n      jumpi(tag_2, lt(calldatasize, 0x04))\n      shr(0xe0, calldataload(0x00))\n      dup1\n      0xb1254360\n      gt\n      tag_10\n      jumpi\n      dup1\n      0xb1254360\n      eq\n      tag_6\n      jumpi\n      dup1\n      0xf2df9250\n      eq\n      tag_7\n      jumpi\n      dup1\n      0xf48ba880\n      eq\n      tag_8\n      jumpi\n      dup1\n      0xf59dc865\n      eq\n      tag_9\n      jumpi\n      jump(tag_2)\n    tag_10:\n      dup1\n      0x10c51c1b\n      eq\n      tag_3\n      jumpi\n      dup1\n      0x25fcc8c9\n      eq\n      tag_4\n      jumpi\n      dup1\n      0x3069d4ae\n      eq\n      tag_5\n      jumpi\n    tag_2:\n      0x00\n      dup1\n      revert\n        /* \"catcoin.sol\":1317:1431  function equity_in_usd(address investor) external view returns (uint) {... */\n    tag_3:\n      tag_11\n      0x04\n      dup1\n      calldatasize\n      sub\n      dup2\n      add\n      swap1\n      tag_12\n      swap2\n      swap1\n      tag_13\n      jump\t// in\n    tag_12:\n      tag_14\n      jump\t// in\n    tag_11:\n      mload(0x40)\n      tag_15\n      swap2\n      swap1\n      tag_16\n      jump\t// in\n    tag_15:\n      mload(0x40)\n      dup1\n      swap2\n      sub\n      swap1\n      return\n        /* \"catcoin.sol\":246:279  uint public usd_to_catcoin = 1000 */\n    tag_4:\n      tag_17\n      tag_18\n      jump\t// in\n    tag_17:\n      mload(0x40)\n      tag_19\n      swap2\n      swap1\n      tag_16\n      jump\t// in\n    tag_19:\n      mload(0x40)\n      dup1\n      swap2\n      sub\n      swap1\n      return\n        /* \"catcoin.sol\":1139:1263  function equity_in_catcoins(address investor) external view returns (uint) {... */\n    tag_5:\n      tag_20\n      0x04\n      dup1\n      calldatasize\n      sub\n      dup2\n      add\n      swap1\n      tag_21\n      swap2\n      swap1\n      tag_13\n      jump\t// in\n    tag_21:\n      tag_22\n      jump\t// in\n    tag_20:\n      mload(0x40)\n      tag_23\n      swap2\n      swap1\n      tag_16\n      jump\t// in\n    tag_23:\n      mload(0x40)\n      dup1\n      swap2\n      sub\n      swap1\n      return\n        /* \"catcoin.sol\":149:183  uint public max_catcoins = 1000000 */\n    tag_6:\n      tag_24\n      tag_25\n      jump\t// in\n    tag_24:\n      mload(0x40)\n      tag_26\n      swap2\n      swap1\n      tag_16\n      jump\t// in\n    tag_26:\n      mload(0x40)\n      dup1\n      swap2\n      sub\n      swap1\n      return\n        /* \"catcoin.sol\":368:405  uint public total_catcoins_bought = 0 */\n    tag_7:\n      tag_27\n      tag_28\n      jump\t// in\n    tag_27:\n      mload(0x40)\n      tag_29\n      swap2\n      swap1\n      tag_16\n      jump\t// in\n    tag_29:\n      mload(0x40)\n      dup1\n      swap2\n      sub\n      swap1\n      return\n        /* \"catcoin.sol\":1460:1864  function buy_catcoins(address investor, uint usd_invested) external can_buy_catcoins(usd_invested) returns (uint) {... */\n    tag_8:\n      tag_30\n      0x04\n      dup1\n      calldatasize\n      sub\n      dup2\n      add\n      swap1\n      tag_31\n      swap2\n      swap1\n      tag_32\n      jump\t// in\n    tag_31:\n      tag_33\n      jump\t// in\n    tag_30:\n      mload(0x40)\n      tag_34\n      swap2\n      swap1\n      tag_16\n      jump\t// in\n    tag_34:\n      mload(0x40)\n      dup1\n      swap2\n      sub\n      swap1\n      return\n        /* \"catcoin.sol\":1894:2246  function sell_catcoins(address investor, uint catcoins_sold) external can_sell_catcoins(investor, catcoins_sold) returns (uint) {... */\n    tag_9:\n      tag_35\n      0x04\n      dup1\n      calldatasize\n      sub\n      dup2\n      add\n      swap1\n      tag_36\n      swap2\n      swap1\n      tag_32\n      jump\t// in\n    tag_36:\n      tag_37\n      jump\t// in\n    tag_35:\n      mload(0x40)\n      tag_38\n      swap2\n      swap1\n      tag_16\n      jump\t// in\n    tag_38:\n      mload(0x40)\n      dup1\n      swap2\n      sub\n      swap1\n      return\n        /* \"catcoin.sol\":1317:1431  function equity_in_usd(address investor) external view returns (uint) {... */\n    tag_14:\n        /* \"catcoin.sol\":1381:1385  uint */\n      0x00\n        /* \"catcoin.sol\":1404:1414  equity_usd */\n      0x04\n        /* \"catcoin.sol\":1404:1424  equity_usd[investor] */\n      0x00\n        /* \"catcoin.sol\":1415:1423  investor */\n      dup4\n        /* \"catcoin.sol\":1404:1424  equity_usd[investor] */\n      0xffffffffffffffffffffffffffffffffffffffff\n      and\n      0xffffffffffffffffffffffffffffffffffffffff\n      and\n      dup2\n      mstore\n      0x20\n      add\n      swap1\n      dup2\n      mstore\n      0x20\n      add\n      0x00\n      keccak256\n      sload\n        /* \"catcoin.sol\":1397:1424  return equity_usd[investor] */\n      swap1\n      pop\n        /* \"catcoin.sol\":1317:1431  function equity_in_usd(address investor) external view returns (uint) {... */\n      swap2\n      swap1\n      pop\n      jump\t// out\n        /* \"catcoin.sol\":246:279  uint public usd_to_catcoin = 1000 */\n    tag_18:\n      sload(0x01)\n      dup2\n      jump\t// out\n        /* \"catcoin.sol\":1139:1263  function equity_in_catcoins(address investor) external view returns (uint) {... */\n    tag_22:\n        /* \"catcoin.sol\":1208:1212  uint */\n      0x00\n        /* \"catcoin.sol\":1231:1246  equity_catcoins */\n      0x03\n        /* \"catcoin.sol\":1231:1256  equity_catcoins[investor] */\n      0x00\n        /* \"catcoin.sol\":1247:1255  investor */\n      dup4\n        /* \"catcoin.sol\":1231:1256  equity_catcoins[investor] */\n      0xffffffffffffffffffffffffffffffffffffffff\n      and\n      0xffffffffffffffffffffffffffffffffffffffff\n      and\n      dup2\n      mstore\n      0x20\n      add\n      swap1\n      dup2\n      mstore\n      0x20\n      add\n      0x00\n      keccak256\n      sload\n        /* \"catcoin.sol\":1224:1256  return equity_catcoins[investor] */\n      swap1\n      pop\n        /* \"catcoin.sol\":1139:1263  function equity_in_catcoins(address investor) external view returns (uint) {... */\n      swap2\n      swap1\n      pop\n      jump\t// out\n        /* \"catcoin.sol\":149:183  uint public max_catcoins = 1000000 */\n    tag_25:\n      sload(0x00)\n      dup2\n      jump\t// out\n        /* \"catcoin.sol\":368:405  uint public total_catcoins_bought = 0 */\n    tag_28:\n      sload(0x02)\n      dup2\n      jump\t// out\n        /* \"catcoin.sol\":1460:1864  function buy_catcoins(address investor, uint usd_invested) external can_buy_catcoins(usd_invested) returns (uint) {... */\n    tag_33:\n        /* \"catcoin.sol\":1568:1572  uint */\n      0x00\n        /* \"catcoin.sol\":1545:1557  usd_invested */\n      dup2\n        /* \"catcoin.sol\":774:786  max_catcoins */\n      sload(0x00)\n        /* \"catcoin.sol\":749:770  total_catcoins_bought */\n      sload(0x02)\n        /* \"catcoin.sol\":732:746  usd_to_catcoin */\n      sload(0x01)\n        /* \"catcoin.sol\":717:729  usd_invested */\n      dup4\n        /* \"catcoin.sol\":717:746  usd_invested * usd_to_catcoin */\n      tag_42\n      swap2\n      swap1\n      tag_43\n      jump\t// in\n    tag_42:\n        /* \"catcoin.sol\":717:770  usd_invested * usd_to_catcoin + total_catcoins_bought */\n      tag_44\n      swap2\n      swap1\n      tag_45\n      jump\t// in\n    tag_44:\n        /* \"catcoin.sol\":717:786  usd_invested * usd_to_catcoin + total_catcoins_bought <= max_catcoins */\n      gt\n      iszero\n        /* \"catcoin.sol\":709:821  require(usd_invested * usd_to_catcoin + total_catcoins_bought <= max_catcoins, \"Not enough Catcoins available.\") */\n      tag_46\n      jumpi\n      mload(0x40)\n      0x08c379a000000000000000000000000000000000000000000000000000000000\n      dup2\n      mstore\n      0x04\n      add\n      tag_47\n      swap1\n      tag_48\n      jump\t// in\n    tag_47:\n      mload(0x40)\n      dup1\n      swap2\n      sub\n      swap1\n      revert\n    tag_46:\n        /* \"catcoin.sol\":1584:1604  uint catcoins_bought */\n      0x00\n        /* \"catcoin.sol\":1622:1636  usd_to_catcoin */\n      sload(0x01)\n        /* \"catcoin.sol\":1607:1619  usd_invested */\n      dup5\n        /* \"catcoin.sol\":1607:1636  usd_invested * usd_to_catcoin */\n      tag_50\n      swap2\n      swap1\n      tag_43\n      jump\t// in\n    tag_50:\n        /* \"catcoin.sol\":1584:1636  uint catcoins_bought = usd_invested * usd_to_catcoin */\n      swap1\n      pop\n        /* \"catcoin.sol\":1675:1690  catcoins_bought */\n      dup1\n        /* \"catcoin.sol\":1646:1661  equity_catcoins */\n      0x03\n        /* \"catcoin.sol\":1646:1671  equity_catcoins[investor] */\n      0x00\n        /* \"catcoin.sol\":1662:1670  investor */\n      dup8\n        /* \"catcoin.sol\":1646:1671  equity_catcoins[investor] */\n      0xffffffffffffffffffffffffffffffffffffffff\n      and\n      0xffffffffffffffffffffffffffffffffffffffff\n      and\n      dup2\n      mstore\n      0x20\n      add\n      swap1\n      dup2\n      mstore\n      0x20\n      add\n      0x00\n      keccak256\n      0x00\n        /* \"catcoin.sol\":1646:1690  equity_catcoins[investor] += catcoins_bought */\n      dup3\n      dup3\n      sload\n      tag_51\n      swap2\n      swap1\n      tag_45\n      jump\t// in\n    tag_51:\n      swap3\n      pop\n      pop\n      dup2\n      swap1\n      sstore\n      pop\n        /* \"catcoin.sol\":1751:1765  usd_to_catcoin */\n      sload(0x01)\n        /* \"catcoin.sol\":1723:1738  equity_catcoins */\n      0x03\n        /* \"catcoin.sol\":1723:1748  equity_catcoins[investor] */\n      0x00\n        /* \"catcoin.sol\":1739:1747  investor */\n      dup8\n        /* \"catcoin.sol\":1723:1748  equity_catcoins[investor] */\n      0xffffffffffffffffffffffffffffffffffffffff\n      and\n      0xffffffffffffffffffffffffffffffffffffffff\n      and\n      dup2\n      mstore\n      0x20\n      add\n      swap1\n      dup2\n      mstore\n      0x20\n      add\n      0x00\n      keccak256\n      sload\n        /* \"catcoin.sol\":1723:1765  equity_catcoins[investor] / usd_to_catcoin */\n      tag_52\n      swap2\n      swap1\n      tag_53\n      jump\t// in\n    tag_52:\n        /* \"catcoin.sol\":1700:1710  equity_usd */\n      0x04\n        /* \"catcoin.sol\":1700:1720  equity_usd[investor] */\n      0x00\n        /* \"catcoin.sol\":1711:1719  investor */\n      dup8\n        /* \"catcoin.sol\":1700:1720  equity_usd[investor] */\n      0xffffffffffffffffffffffffffffffffffffffff\n      and\n      0xffffffffffffffffffffffffffffffffffffffff\n      and\n      dup2\n      mstore\n      0x20\n      add\n      swap1\n      dup2\n      mstore\n      0x20\n      add\n      0x00\n      keccak256\n        /* \"catcoin.sol\":1700:1765  equity_usd[investor] = equity_catcoins[investor] / usd_to_catcoin */\n      dup2\n      swap1\n      sstore\n      pop\n        /* \"catcoin.sol\":1800:1815  catcoins_bought */\n      dup1\n        /* \"catcoin.sol\":1775:1796  total_catcoins_bought */\n      0x02\n      0x00\n        /* \"catcoin.sol\":1775:1815  total_catcoins_bought += catcoins_bought */\n      dup3\n      dup3\n      sload\n      tag_54\n      swap2\n      swap1\n      tag_45\n      jump\t// in\n    tag_54:\n      swap3\n      pop\n      pop\n      dup2\n      swap1\n      sstore\n      pop\n        /* \"catcoin.sol\":1832:1847  equity_catcoins */\n      0x03\n        /* \"catcoin.sol\":1832:1857  equity_catcoins[investor] */\n      0x00\n        /* \"catcoin.sol\":1848:1856  investor */\n      dup7\n        /* \"catcoin.sol\":1832:1857  equity_catcoins[investor] */\n      0xffffffffffffffffffffffffffffffffffffffff\n      and\n      0xffffffffffffffffffffffffffffffffffffffff\n      and\n      dup2\n      mstore\n      0x20\n      add\n      swap1\n      dup2\n      mstore\n      0x20\n      add\n      0x00\n      keccak256\n      sload\n        /* \"catcoin.sol\":1825:1857  return equity_catcoins[investor] */\n      swap3\n      pop\n      pop\n        /* \"catcoin.sol\":1460:1864  function buy_catcoins(address investor, uint usd_invested) external can_buy_catcoins(usd_invested) returns (uint) {... */\n      pop\n      swap3\n      swap2\n      pop\n      pop\n      jump\t// out\n        /* \"catcoin.sol\":1894:2246  function sell_catcoins(address investor, uint catcoins_sold) external can_sell_catcoins(investor, catcoins_sold) returns (uint) {... */\n    tag_37:\n        /* \"catcoin.sol\":2016:2020  uint */\n      0x00\n        /* \"catcoin.sol\":1982:1990  investor */\n      dup3\n        /* \"catcoin.sol\":1992:2005  catcoins_sold */\n      dup3\n        /* \"catcoin.sol\":1016:1029  catcoins_sold */\n      dup1\n        /* \"catcoin.sol\":987:1002  equity_catcoins */\n      0x03\n        /* \"catcoin.sol\":987:1012  equity_catcoins[investor] */\n      0x00\n        /* \"catcoin.sol\":1003:1011  investor */\n      dup5\n        /* \"catcoin.sol\":987:1012  equity_catcoins[investor] */\n      0xffffffffffffffffffffffffffffffffffffffff\n      and\n      0xffffffffffffffffffffffffffffffffffffffff\n      and\n      dup2\n      mstore\n      0x20\n      add\n      swap1\n      dup2\n      mstore\n      0x20\n      add\n      0x00\n      keccak256\n      sload\n        /* \"catcoin.sol\":987:1029  equity_catcoins[investor] >= catcoins_sold */\n      lt\n      iszero\n        /* \"catcoin.sol\":979:1062  require(equity_catcoins[investor] >= catcoins_sold, \"Not enough Catcoins to sell.\") */\n      tag_56\n      jumpi\n      mload(0x40)\n      0x08c379a000000000000000000000000000000000000000000000000000000000\n      dup2\n      mstore\n      0x04\n      add\n      tag_57\n      swap1\n      tag_58\n      jump\t// in\n    tag_57:\n      mload(0x40)\n      dup1\n      swap2\n      sub\n      swap1\n      revert\n    tag_56:\n        /* \"catcoin.sol\":2061:2074  catcoins_sold */\n      dup4\n        /* \"catcoin.sol\":2032:2047  equity_catcoins */\n      0x03\n        /* \"catcoin.sol\":2032:2057  equity_catcoins[investor] */\n      0x00\n        /* \"catcoin.sol\":2048:2056  investor */\n      dup8\n        /* \"catcoin.sol\":2032:2057  equity_catcoins[investor] */\n      0xffffffffffffffffffffffffffffffffffffffff\n      and\n      0xffffffffffffffffffffffffffffffffffffffff\n      and\n      dup2\n      mstore\n      0x20\n      add\n      swap1\n      dup2\n      mstore\n      0x20\n      add\n      0x00\n      keccak256\n      0x00\n        /* \"catcoin.sol\":2032:2074  equity_catcoins[investor] -= catcoins_sold */\n      dup3\n      dup3\n      sload\n      tag_60\n      swap2\n      swap1\n      tag_61\n      jump\t// in\n    tag_60:\n      swap3\n      pop\n      pop\n      dup2\n      swap1\n      sstore\n      pop\n        /* \"catcoin.sol\":2135:2149  usd_to_catcoin */\n      sload(0x01)\n        /* \"catcoin.sol\":2107:2122  equity_catcoins */\n      0x03\n        /* \"catcoin.sol\":2107:2132  equity_catcoins[investor] */\n      0x00\n        /* \"catcoin.sol\":2123:2131  investor */\n      dup8\n        /* \"catcoin.sol\":2107:2132  equity_catcoins[investor] */\n      0xffffffffffffffffffffffffffffffffffffffff\n      and\n      0xffffffffffffffffffffffffffffffffffffffff\n      and\n      dup2\n      mstore\n      0x20\n      add\n      swap1\n      dup2\n      mstore\n      0x20\n      add\n      0x00\n      keccak256\n      sload\n        /* \"catcoin.sol\":2107:2149  equity_catcoins[investor] / usd_to_catcoin */\n      tag_62\n      swap2\n      swap1\n      tag_53\n      jump\t// in\n    tag_62:\n        /* \"catcoin.sol\":2084:2094  equity_usd */\n      0x04\n        /* \"catcoin.sol\":2084:2104  equity_usd[investor] */\n      0x00\n        /* \"catcoin.sol\":2095:2103  investor */\n      dup8\n        /* \"catcoin.sol\":2084:2104  equity_usd[investor] */\n      0xffffffffffffffffffffffffffffffffffffffff\n      and\n      0xffffffffffffffffffffffffffffffffffffffff\n      and\n      dup2\n      mstore\n      0x20\n      add\n      swap1\n      dup2\n      mstore\n      0x20\n      add\n      0x00\n      keccak256\n        /* \"catcoin.sol\":2084:2149  equity_usd[investor] = equity_catcoins[investor] / usd_to_catcoin */\n      dup2\n      swap1\n      sstore\n      pop\n        /* \"catcoin.sol\":2184:2197  catcoins_sold */\n      dup4\n        /* \"catcoin.sol\":2159:2180  total_catcoins_bought */\n      0x02\n      0x00\n        /* \"catcoin.sol\":2159:2197  total_catcoins_bought -= catcoins_sold */\n      dup3\n      dup3\n      sload\n      tag_63\n      swap2\n      swap1\n      tag_61\n      jump\t// in\n    tag_63:\n      swap3\n      pop\n      pop\n      dup2\n      swap1\n      sstore\n      pop\n        /* \"catcoin.sol\":2214:2229  equity_catcoins */\n      0x03\n        /* \"catcoin.sol\":2214:2239  equity_catcoins[investor] */\n      0x00\n        /* \"catcoin.sol\":2230:2238  investor */\n      dup7\n        /* \"catcoin.sol\":2214:2239  equity_catcoins[investor] */\n      0xffffffffffffffffffffffffffffffffffffffff\n      and\n      0xffffffffffffffffffffffffffffffffffffffff\n      and\n      dup2\n      mstore\n      0x20\n      add\n      swap1\n      dup2\n      mstore\n      0x20\n      add\n      0x00\n      keccak256\n      sload\n        /* \"catcoin.sol\":2207:2239  return equity_catcoins[investor] */\n      swap3\n      pop\n        /* \"catcoin.sol\":1894:2246  function sell_catcoins(address investor, uint catcoins_sold) external can_sell_catcoins(investor, catcoins_sold) returns (uint) {... */\n      pop\n      pop\n      swap3\n      swap2\n      pop\n      pop\n      jump\t// out\n        /* \"#utility.yul\":88:205   */\n    tag_65:\n        /* \"#utility.yul\":197:198   */\n      0x00\n        /* \"#utility.yul\":194:195   */\n      dup1\n        /* \"#utility.yul\":187:199   */\n      revert\n        /* \"#utility.yul\":334:460   */\n    tag_67:\n        /* \"#utility.yul\":371:378   */\n      0x00\n        /* \"#utility.yul\":411:453   */\n      0xffffffffffffffffffffffffffffffffffffffff\n        /* \"#utility.yul\":404:409   */\n      dup3\n        /* \"#utility.yul\":400:454   */\n      and\n        /* \"#utility.yul\":389:454   */\n      swap1\n      pop\n        /* \"#utility.yul\":334:460   */\n      swap2\n      swap1\n      pop\n      jump\t// out\n        /* \"#utility.yul\":466:562   */\n    tag_68:\n        /* \"#utility.yul\":503:510   */\n      0x00\n        /* \"#utility.yul\":532:556   */\n      tag_88\n        /* \"#utility.yul\":550:555   */\n      dup3\n        /* \"#utility.yul\":532:556   */\n      tag_67\n      jump\t// in\n    tag_88:\n        /* \"#utility.yul\":521:556   */\n      swap1\n      pop\n        /* \"#utility.yul\":466:562   */\n      swap2\n      swap1\n      pop\n      jump\t// out\n        /* \"#utility.yul\":568:690   */\n    tag_69:\n        /* \"#utility.yul\":641:665   */\n      tag_90\n        /* \"#utility.yul\":659:664   */\n      dup2\n        /* \"#utility.yul\":641:665   */\n      tag_68\n      jump\t// in\n    tag_90:\n        /* \"#utility.yul\":634:639   */\n      dup2\n        /* \"#utility.yul\":631:666   */\n      eq\n        /* \"#utility.yul\":621:684   */\n      tag_91\n      jumpi\n        /* \"#utility.yul\":680:681   */\n      0x00\n        /* \"#utility.yul\":677:678   */\n      dup1\n        /* \"#utility.yul\":670:682   */\n      revert\n        /* \"#utility.yul\":621:684   */\n    tag_91:\n        /* \"#utility.yul\":568:690   */\n      pop\n      jump\t// out\n        /* \"#utility.yul\":696:835   */\n    tag_70:\n        /* \"#utility.yul\":742:747   */\n      0x00\n        /* \"#utility.yul\":780:786   */\n      dup2\n        /* \"#utility.yul\":767:787   */\n      calldataload\n        /* \"#utility.yul\":758:787   */\n      swap1\n      pop\n        /* \"#utility.yul\":796:829   */\n      tag_93\n        /* \"#utility.yul\":823:828   */\n      dup2\n        /* \"#utility.yul\":796:829   */\n      tag_69\n      jump\t// in\n    tag_93:\n        /* \"#utility.yul\":696:835   */\n      swap3\n      swap2\n      pop\n      pop\n      jump\t// out\n        /* \"#utility.yul\":841:1170   */\n    tag_13:\n        /* \"#utility.yul\":900:906   */\n      0x00\n        /* \"#utility.yul\":949:951   */\n      0x20\n        /* \"#utility.yul\":937:946   */\n      dup3\n        /* \"#utility.yul\":928:935   */\n      dup5\n        /* \"#utility.yul\":924:947   */\n      sub\n        /* \"#utility.yul\":920:952   */\n      slt\n        /* \"#utility.yul\":917:1036   */\n      iszero\n      tag_95\n      jumpi\n        /* \"#utility.yul\":955:1034   */\n      tag_96\n      tag_65\n      jump\t// in\n    tag_96:\n        /* \"#utility.yul\":917:1036   */\n    tag_95:\n        /* \"#utility.yul\":1075:1076   */\n      0x00\n        /* \"#utility.yul\":1100:1153   */\n      tag_97\n        /* \"#utility.yul\":1145:1152   */\n      dup5\n        /* \"#utility.yul\":1136:1142   */\n      dup3\n        /* \"#utility.yul\":1125:1134   */\n      dup6\n        /* \"#utility.yul\":1121:1143   */\n      add\n        /* \"#utility.yul\":1100:1153   */\n      tag_70\n      jump\t// in\n    tag_97:\n        /* \"#utility.yul\":1090:1153   */\n      swap2\n      pop\n        /* \"#utility.yul\":1046:1163   */\n      pop\n        /* \"#utility.yul\":841:1170   */\n      swap3\n      swap2\n      pop\n      pop\n      jump\t// out\n        /* \"#utility.yul\":1176:1253   */\n    tag_71:\n        /* \"#utility.yul\":1213:1220   */\n      0x00\n        /* \"#utility.yul\":1242:1247   */\n      dup2\n        /* \"#utility.yul\":1231:1247   */\n      swap1\n      pop\n        /* \"#utility.yul\":1176:1253   */\n      swap2\n      swap1\n      pop\n      jump\t// out\n        /* \"#utility.yul\":1259:1377   */\n    tag_72:\n        /* \"#utility.yul\":1346:1370   */\n      tag_100\n        /* \"#utility.yul\":1364:1369   */\n      dup2\n        /* \"#utility.yul\":1346:1370   */\n      tag_71\n      jump\t// in\n    tag_100:\n        /* \"#utility.yul\":1341:1344   */\n      dup3\n        /* \"#utility.yul\":1334:1371   */\n      mstore\n        /* \"#utility.yul\":1259:1377   */\n      pop\n      pop\n      jump\t// out\n        /* \"#utility.yul\":1383:1605   */\n    tag_16:\n        /* \"#utility.yul\":1476:1480   */\n      0x00\n        /* \"#utility.yul\":1514:1516   */\n      0x20\n        /* \"#utility.yul\":1503:1512   */\n      dup3\n        /* \"#utility.yul\":1499:1517   */\n      add\n        /* \"#utility.yul\":1491:1517   */\n      swap1\n      pop\n        /* \"#utility.yul\":1527:1598   */\n      tag_102\n        /* \"#utility.yul\":1595:1596   */\n      0x00\n        /* \"#utility.yul\":1584:1593   */\n      dup4\n        /* \"#utility.yul\":1580:1597   */\n      add\n        /* \"#utility.yul\":1571:1577   */\n      dup5\n        /* \"#utility.yul\":1527:1598   */\n      tag_72\n      jump\t// in\n    tag_102:\n        /* \"#utility.yul\":1383:1605   */\n      swap3\n      swap2\n      pop\n      pop\n      jump\t// out\n        /* \"#utility.yul\":1611:1733   */\n    tag_73:\n        /* \"#utility.yul\":1684:1708   */\n      tag_104\n        /* \"#utility.yul\":1702:1707   */\n      dup2\n        /* \"#utility.yul\":1684:1708   */\n      tag_71\n      jump\t// in\n    tag_104:\n        /* \"#utility.yul\":1677:1682   */\n      dup2\n        /* \"#utility.yul\":1674:1709   */\n      eq\n        /* \"#utility.yul\":1664:1727   */\n      tag_105\n      jumpi\n        /* \"#utility.yul\":1723:1724   */\n      0x00\n        /* \"#utility.yul\":1720:1721   */\n      dup1\n        /* \"#utility.yul\":1713:1725   */\n      revert\n        /* \"#utility.yul\":1664:1727   */\n    tag_105:\n        /* \"#utility.yul\":1611:1733   */\n      pop\n      jump\t// out\n        /* \"#utility.yul\":1739:1878   */\n    tag_74:\n        /* \"#utility.yul\":1785:1790   */\n      0x00\n        /* \"#utility.yul\":1823:1829   */\n      dup2\n        /* \"#utility.yul\":1810:1830   */\n      calldataload\n        /* \"#utility.yul\":1801:1830   */\n      swap1\n      pop\n        /* \"#utility.yul\":1839:1872   */\n      tag_107\n        /* \"#utility.yul\":1866:1871   */\n      dup2\n        /* \"#utility.yul\":1839:1872   */\n      tag_73\n      jump\t// in\n    tag_107:\n        /* \"#utility.yul\":1739:1878   */\n      swap3\n      swap2\n      pop\n      pop\n      jump\t// out\n        /* \"#utility.yul\":1884:2358   */\n    tag_32:\n        /* \"#utility.yul\":1952:1958   */\n      0x00\n        /* \"#utility.yul\":1960:1966   */\n      dup1\n        /* \"#utility.yul\":2009:2011   */\n      0x40\n        /* \"#utility.yul\":1997:2006   */\n      dup4\n        /* \"#utility.yul\":1988:1995   */\n      dup6\n        /* \"#utility.yul\":1984:2007   */\n      sub\n        /* \"#utility.yul\":1980:2012   */\n      slt\n        /* \"#utility.yul\":1977:2096   */\n      iszero\n      tag_109\n      jumpi\n        /* \"#utility.yul\":2015:2094   */\n      tag_110\n      tag_65\n      jump\t// in\n    tag_110:\n        /* \"#utility.yul\":1977:2096   */\n    tag_109:\n        /* \"#utility.yul\":2135:2136   */\n      0x00\n        /* \"#utility.yul\":2160:2213   */\n      tag_111\n        /* \"#utility.yul\":2205:2212   */\n      dup6\n        /* \"#utility.yul\":2196:2202   */\n      dup3\n        /* \"#utility.yul\":2185:2194   */\n      dup7\n        /* \"#utility.yul\":2181:2203   */\n      add\n        /* \"#utility.yul\":2160:2213   */\n      tag_70\n      jump\t// in\n    tag_111:\n        /* \"#utility.yul\":2150:2213   */\n      swap3\n      pop\n        /* \"#utility.yul\":2106:2223   */\n      pop\n        /* \"#utility.yul\":2262:2264   */\n      0x20\n        /* \"#utility.yul\":2288:2341   */\n      tag_112\n        /* \"#utility.yul\":2333:2340   */\n      dup6\n        /* \"#utility.yul\":2324:2330   */\n      dup3\n        /* \"#utility.yul\":2313:2322   */\n      dup7\n        /* \"#utility.yul\":2309:2331   */\n      add\n        /* \"#utility.yul\":2288:2341   */\n      tag_74\n      jump\t// in\n    tag_112:\n        /* \"#utility.yul\":2278:2341   */\n      swap2\n      pop\n        /* \"#utility.yul\":2233:2351   */\n      pop\n        /* \"#utility.yul\":1884:2358   */\n      swap3\n      pop\n      swap3\n      swap1\n      pop\n      jump\t// out\n        /* \"#utility.yul\":2364:2544   */\n    tag_75:\n        /* \"#utility.yul\":2412:2489   */\n      0x4e487b7100000000000000000000000000000000000000000000000000000000\n        /* \"#utility.yul\":2409:2410   */\n      0x00\n        /* \"#utility.yul\":2402:2490   */\n      mstore\n        /* \"#utility.yul\":2509:2513   */\n      0x11\n        /* \"#utility.yul\":2506:2507   */\n      0x04\n        /* \"#utility.yul\":2499:2514   */\n      mstore\n        /* \"#utility.yul\":2533:2537   */\n      0x24\n        /* \"#utility.yul\":2530:2531   */\n      0x00\n        /* \"#utility.yul\":2523:2538   */\n      revert\n        /* \"#utility.yul\":2550:2960   */\n    tag_43:\n        /* \"#utility.yul\":2590:2597   */\n      0x00\n        /* \"#utility.yul\":2613:2633   */\n      tag_115\n        /* \"#utility.yul\":2631:2632   */\n      dup3\n        /* \"#utility.yul\":2613:2633   */\n      tag_71\n      jump\t// in\n    tag_115:\n        /* \"#utility.yul\":2608:2633   */\n      swap2\n      pop\n        /* \"#utility.yul\":2647:2667   */\n      tag_116\n        /* \"#utility.yul\":2665:2666   */\n      dup4\n        /* \"#utility.yul\":2647:2667   */\n      tag_71\n      jump\t// in\n    tag_116:\n        /* \"#utility.yul\":2642:2667   */\n      swap3\n      pop\n        /* \"#utility.yul\":2702:2703   */\n      dup3\n        /* \"#utility.yul\":2699:2700   */\n      dup3\n        /* \"#utility.yul\":2695:2704   */\n      mul\n        /* \"#utility.yul\":2724:2754   */\n      tag_117\n        /* \"#utility.yul\":2742:2753   */\n      dup2\n        /* \"#utility.yul\":2724:2754   */\n      tag_71\n      jump\t// in\n    tag_117:\n        /* \"#utility.yul\":2713:2754   */\n      swap2\n      pop\n        /* \"#utility.yul\":2903:2904   */\n      dup3\n        /* \"#utility.yul\":2894:2901   */\n      dup3\n        /* \"#utility.yul\":2890:2905   */\n      div\n        /* \"#utility.yul\":2887:2888   */\n      dup5\n        /* \"#utility.yul\":2884:2906   */\n      eq\n        /* \"#utility.yul\":2864:2865   */\n      dup4\n        /* \"#utility.yul\":2857:2866   */\n      iszero\n        /* \"#utility.yul\":2837:2920   */\n      or\n        /* \"#utility.yul\":2814:2953   */\n      tag_118\n      jumpi\n        /* \"#utility.yul\":2933:2951   */\n      tag_119\n      tag_75\n      jump\t// in\n    tag_119:\n        /* \"#utility.yul\":2814:2953   */\n    tag_118:\n        /* \"#utility.yul\":2598:2960   */\n      pop\n        /* \"#utility.yul\":2550:2960   */\n      swap3\n      swap2\n      pop\n      pop\n      jump\t// out\n        /* \"#utility.yul\":2966:3157   */\n    tag_45:\n        /* \"#utility.yul\":3006:3009   */\n      0x00\n        /* \"#utility.yul\":3025:3045   */\n      tag_121\n        /* \"#utility.yul\":3043:3044   */\n      dup3\n        /* \"#utility.yul\":3025:3045   */\n      tag_71\n      jump\t// in\n    tag_121:\n        /* \"#utility.yul\":3020:3045   */\n      swap2\n      pop\n        /* \"#utility.yul\":3059:3079   */\n      tag_122\n        /* \"#utility.yul\":3077:3078   */\n      dup4\n        /* \"#utility.yul\":3059:3079   */\n      tag_71\n      jump\t// in\n    tag_122:\n        /* \"#utility.yul\":3054:3079   */\n      swap3\n      pop\n        /* \"#utility.yul\":3102:3103   */\n      dup3\n        /* \"#utility.yul\":3099:3100   */\n      dup3\n        /* \"#utility.yul\":3095:3104   */\n      add\n        /* \"#utility.yul\":3088:3104   */\n      swap1\n      pop\n        /* \"#utility.yul\":3123:3126   */\n      dup1\n        /* \"#utility.yul\":3120:3121   */\n      dup3\n        /* \"#utility.yul\":3117:3127   */\n      gt\n        /* \"#utility.yul\":3114:3150   */\n      iszero\n      tag_123\n      jumpi\n        /* \"#utility.yul\":3130:3148   */\n      tag_124\n      tag_75\n      jump\t// in\n    tag_124:\n        /* \"#utility.yul\":3114:3150   */\n    tag_123:\n        /* \"#utility.yul\":2966:3157   */\n      swap3\n      swap2\n      pop\n      pop\n      jump\t// out\n        /* \"#utility.yul\":3163:3332   */\n    tag_76:\n        /* \"#utility.yul\":3247:3258   */\n      0x00\n        /* \"#utility.yul\":3281:3287   */\n      dup3\n        /* \"#utility.yul\":3276:3279   */\n      dup3\n        /* \"#utility.yul\":3269:3288   */\n      mstore\n        /* \"#utility.yul\":3321:3325   */\n      0x20\n        /* \"#utility.yul\":3316:3319   */\n      dup3\n        /* \"#utility.yul\":3312:3326   */\n      add\n        /* \"#utility.yul\":3297:3326   */\n      swap1\n      pop\n        /* \"#utility.yul\":3163:3332   */\n      swap3\n      swap2\n      pop\n      pop\n      jump\t// out\n        /* \"#utility.yul\":3338:3518   */\n    tag_77:\n        /* \"#utility.yul\":3478:3510   */\n      0x4e6f7420656e6f75676820436174636f696e7320617661696c61626c652e0000\n        /* \"#utility.yul\":3474:3475   */\n      0x00\n        /* \"#utility.yul\":3466:3472   */\n      dup3\n        /* \"#utility.yul\":3462:3476   */\n      add\n        /* \"#utility.yul\":3455:3511   */\n      mstore\n        /* \"#utility.yul\":3338:3518   */\n      pop\n      jump\t// out\n        /* \"#utility.yul\":3524:3890   */\n    tag_78:\n        /* \"#utility.yul\":3666:3669   */\n      0x00\n        /* \"#utility.yul\":3687:3754   */\n      tag_128\n        /* \"#utility.yul\":3751:3753   */\n      0x1e\n        /* \"#utility.yul\":3746:3749   */\n      dup4\n        /* \"#utility.yul\":3687:3754   */\n      tag_76\n      jump\t// in\n    tag_128:\n        /* \"#utility.yul\":3680:3754   */\n      swap2\n      pop\n        /* \"#utility.yul\":3763:3856   */\n      tag_129\n        /* \"#utility.yul\":3852:3855   */\n      dup3\n        /* \"#utility.yul\":3763:3856   */\n      tag_77\n      jump\t// in\n    tag_129:\n        /* \"#utility.yul\":3881:3883   */\n      0x20\n        /* \"#utility.yul\":3876:3879   */\n      dup3\n        /* \"#utility.yul\":3872:3884   */\n      add\n        /* \"#utility.yul\":3865:3884   */\n      swap1\n      pop\n        /* \"#utility.yul\":3524:3890   */\n      swap2\n      swap1\n      pop\n      jump\t// out\n        /* \"#utility.yul\":3896:4315   */\n    tag_48:\n        /* \"#utility.yul\":4062:4066   */\n      0x00\n        /* \"#utility.yul\":4100:4102   */\n      0x20\n        /* \"#utility.yul\":4089:4098   */\n      dup3\n        /* \"#utility.yul\":4085:4103   */\n      add\n        /* \"#utility.yul\":4077:4103   */\n      swap1\n      pop\n        /* \"#utility.yul\":4149:4158   */\n      dup2\n        /* \"#utility.yul\":4143:4147   */\n      dup2\n        /* \"#utility.yul\":4139:4159   */\n      sub\n        /* \"#utility.yul\":4135:4136   */\n      0x00\n        /* \"#utility.yul\":4124:4133   */\n      dup4\n        /* \"#utility.yul\":4120:4137   */\n      add\n        /* \"#utility.yul\":4113:4160   */\n      mstore\n        /* \"#utility.yul\":4177:4308   */\n      tag_131\n        /* \"#utility.yul\":4303:4307   */\n      dup2\n        /* \"#utility.yul\":4177:4308   */\n      tag_78\n      jump\t// in\n    tag_131:\n        /* \"#utility.yul\":4169:4308   */\n      swap1\n      pop\n        /* \"#utility.yul\":3896:4315   */\n      swap2\n      swap1\n      pop\n      jump\t// out\n        /* \"#utility.yul\":4321:4501   */\n    tag_79:\n        /* \"#utility.yul\":4369:4446   */\n      0x4e487b7100000000000000000000000000000000000000000000000000000000\n        /* \"#utility.yul\":4366:4367   */\n      0x00\n        /* \"#utility.yul\":4359:4447   */\n      mstore\n        /* \"#utility.yul\":4466:4470   */\n      0x12\n        /* \"#utility.yul\":4463:4464   */\n      0x04\n        /* \"#utility.yul\":4456:4471   */\n      mstore\n        /* \"#utility.yul\":4490:4494   */\n      0x24\n        /* \"#utility.yul\":4487:4488   */\n      0x00\n        /* \"#utility.yul\":4480:4495   */\n      revert\n        /* \"#utility.yul\":4507:4692   */\n    tag_53:\n        /* \"#utility.yul\":4547:4548   */\n      0x00\n        /* \"#utility.yul\":4564:4584   */\n      tag_134\n        /* \"#utility.yul\":4582:4583   */\n      dup3\n        /* \"#utility.yul\":4564:4584   */\n      tag_71\n      jump\t// in\n    tag_134:\n        /* \"#utility.yul\":4559:4584   */\n      swap2\n      pop\n        /* \"#utility.yul\":4598:4618   */\n      tag_135\n        /* \"#utility.yul\":4616:4617   */\n      dup4\n        /* \"#utility.yul\":4598:4618   */\n      tag_71\n      jump\t// in\n    tag_135:\n        /* \"#utility.yul\":4593:4618   */\n      swap3\n      pop\n        /* \"#utility.yul\":4637:4638   */\n      dup3\n        /* \"#utility.yul\":4627:4662   */\n      tag_136\n      jumpi\n        /* \"#utility.yul\":4642:4660   */\n      tag_137\n      tag_79\n      jump\t// in\n    tag_137:\n        /* \"#utility.yul\":4627:4662   */\n    tag_136:\n        /* \"#utility.yul\":4684:4685   */\n      dup3\n        /* \"#utility.yul\":4681:4682   */\n      dup3\n        /* \"#utility.yul\":4677:4686   */\n      div\n        /* \"#utility.yul\":4672:4686   */\n      swap1\n      pop\n        /* \"#utility.yul\":4507:4692   */\n      swap3\n      swap2\n      pop\n      pop\n      jump\t// out\n        /* \"#utility.yul\":4698:4876   */\n    tag_80:\n        /* \"#utility.yul\":4838:4868   */\n      0x4e6f7420656e6f75676820436174636f696e7320746f2073656c6c2e00000000\n        /* \"#utility.yul\":4834:4835   */\n      0x00\n        /* \"#utility.yul\":4826:4832   */\n      dup3\n        /* \"#utility.yul\":4822:4836   */\n      add\n        /* \"#utility.yul\":4815:4869   */\n      mstore\n        /* \"#utility.yul\":4698:4876   */\n      pop\n      jump\t// out\n        /* \"#utility.yul\":4882:5248   */\n    tag_81:\n        /* \"#utility.yul\":5024:5027   */\n      0x00\n        /* \"#utility.yul\":5045:5112   */\n      tag_140\n        /* \"#utility.yul\":5109:5111   */\n      0x1c\n        /* \"#utility.yul\":5104:5107   */\n      dup4\n        /* \"#utility.yul\":5045:5112   */\n      tag_76\n      jump\t// in\n    tag_140:\n        /* \"#utility.yul\":5038:5112   */\n      swap2\n      pop\n        /* \"#utility.yul\":5121:5214   */\n      tag_141\n        /* \"#utility.yul\":5210:5213   */\n      dup3\n        /* \"#utility.yul\":5121:5214   */\n      tag_80\n      jump\t// in\n    tag_141:\n        /* \"#utility.yul\":5239:5241   */\n      0x20\n        /* \"#utility.yul\":5234:5237   */\n      dup3\n        /* \"#utility.yul\":5230:5242   */\n      add\n        /* \"#utility.yul\":5223:5242   */\n      swap1\n      pop\n        /* \"#utility.yul\":4882:5248   */\n      swap2\n      swap1\n      pop\n      jump\t// out\n        /* \"#utility.yul\":5254:5673   */\n    tag_58:\n        /* \"#utility.yul\":5420:5424   */\n      0x00\n        /* \"#utility.yul\":5458:5460   */\n      0x20\n        /* \"#utility.yul\":5447:5456   */\n      dup3\n        /* \"#utility.yul\":5443:5461   */\n      add\n        /* \"#utility.yul\":5435:5461   */\n      swap1\n      pop\n        /* \"#utility.yul\":5507:5516   */\n      dup2\n        /* \"#utility.yul\":5501:5505   */\n      dup2\n        /* \"#utility.yul\":5497:5517   */\n      sub\n        /* \"#utility.yul\":5493:5494   */\n      0x00\n        /* \"#utility.yul\":5482:5491   */\n      dup4\n        /* \"#utility.yul\":5478:5495   */\n      add\n        /* \"#utility.yul\":5471:5518   */\n      mstore\n        /* \"#utility.yul\":5535:5666   */\n      tag_143\n        /* \"#utility.yul\":5661:5665   */\n      dup2\n        /* \"#utility.yul\":5535:5666   */\n      tag_81\n      jump\t// in\n    tag_143:\n        /* \"#utility.yul\":5527:5666   */\n      swap1\n      pop\n        /* \"#utility.yul\":5254:5673   */\n      swap2\n      swap1\n      pop\n      jump\t// out\n        /* \"#utility.yul\":5679:5873   */\n    tag_61:\n        /* \"#utility.yul\":5719:5723   */\n      0x00\n        /* \"#utility.yul\":5739:5759   */\n      tag_145\n        /* \"#utility.yul\":5757:5758   */\n      dup3\n        /* \"#utility.yul\":5739:5759   */\n      tag_71\n      jump\t// in\n    tag_145:\n        /* \"#utility.yul\":5734:5759   */\n      swap2\n      pop\n        /* \"#utility.yul\":5773:5793   */\n      tag_146\n        /* \"#utility.yul\":5791:5792   */\n      dup4\n        /* \"#utility.yul\":5773:5793   */\n      tag_71\n      jump\t// in\n    tag_146:\n        /* \"#utility.yul\":5768:5793   */\n      swap3\n      pop\n        /* \"#utility.yul\":5817:5818   */\n      dup3\n        /* \"#utility.yul\":5814:5815   */\n      dup3\n        /* \"#utility.yul\":5810:5819   */\n      sub\n        /* \"#utility.yul\":5802:5819   */\n      swap1\n      pop\n        /* \"#utility.yul\":5841:5842   */\n      dup2\n        /* \"#utility.yul\":5835:5839   */\n      dup2\n        /* \"#utility.yul\":5832:5843   */\n      gt\n        /* \"#utility.yul\":5829:5866   */\n      iszero\n      tag_147\n      jumpi\n        /* \"#utility.yul\":5846:5864   */\n      tag_148\n      tag_75\n      jump\t// in\n    tag_148:\n        /* \"#utility.yul\":5829:5866   */\n    tag_147:\n        /* \"#utility.yul\":5679:5873   */\n      swap3\n      swap2\n      pop\n      pop\n      jump\t// out\n\n    auxdata: 0xa264697066735822122055c36e0d8a284dc659a80cc3a560904ad588349a7e002c925be1f18517a7b5e664736f6c634300081a0033\n}\n",
				"bytecode": {
					"linkReferences": {},
					"object": "6080604052620f42405f556103e86001555f600255348015601e575f80fd5b506109118061002c5f395ff3fe608060405234801561000f575f80fd5b506004361061007b575f3560e01c8063b125436011610059578063b1254360146100fd578063f2df92501461011b578063f48ba88014610139578063f59dc865146101695761007b565b806310c51c1b1461007f57806325fcc8c9146100af5780633069d4ae146100cd575b5f80fd5b61009960048036038101906100949190610606565b610199565b6040516100a69190610649565b60405180910390f35b6100b76101df565b6040516100c49190610649565b60405180910390f35b6100e760048036038101906100e29190610606565b6101e5565b6040516100f49190610649565b60405180910390f35b61010561022b565b6040516101129190610649565b60405180910390f35b610123610230565b6040516101309190610649565b60405180910390f35b610153600480360381019061014e919061068c565b610236565b6040516101609190610649565b60405180910390f35b610183600480360381019061017e919061068c565b6103e6565b6040516101909190610649565b60405180910390f35b5f60045f8373ffffffffffffffffffffffffffffffffffffffff1673ffffffffffffffffffffffffffffffffffffffff1681526020019081526020015f20549050919050565b60015481565b5f60035f8373ffffffffffffffffffffffffffffffffffffffff1673ffffffffffffffffffffffffffffffffffffffff1681526020019081526020015f20549050919050565b5f5481565b60025481565b5f815f546002546001548361024b91906106f7565b6102559190610738565b1115610296576040517f08c379a000000000000000000000000000000000000000000000000000000000815260040161028d906107c5565b60405180910390fd5b5f600154846102a591906106f7565b90508060035f8773ffffffffffffffffffffffffffffffffffffffff1673ffffffffffffffffffffffffffffffffffffffff1681526020019081526020015f205f8282546102f39190610738565b9250508190555060015460035f8773ffffffffffffffffffffffffffffffffffffffff1673ffffffffffffffffffffffffffffffffffffffff1681526020019081526020015f20546103459190610810565b60045f8773ffffffffffffffffffffffffffffffffffffffff1673ffffffffffffffffffffffffffffffffffffffff1681526020019081526020015f20819055508060025f8282546103979190610738565b9250508190555060035f8673ffffffffffffffffffffffffffffffffffffffff1673ffffffffffffffffffffffffffffffffffffffff1681526020019081526020015f20549250505092915050565b5f82828060035f8473ffffffffffffffffffffffffffffffffffffffff1673ffffffffffffffffffffffffffffffffffffffff1681526020019081526020015f20541015610469576040517f08c379a00000000000000000000000000000000000000000000000000000000081526004016104609061088a565b60405180910390fd5b8360035f8773ffffffffffffffffffffffffffffffffffffffff1673ffffffffffffffffffffffffffffffffffffffff1681526020019081526020015f205f8282546104b591906108a8565b9250508190555060015460035f8773ffffffffffffffffffffffffffffffffffffffff1673ffffffffffffffffffffffffffffffffffffffff1681526020019081526020015f20546105079190610810565b60045f8773ffffffffffffffffffffffffffffffffffffffff1673ffffffffffffffffffffffffffffffffffffffff1681526020019081526020015f20819055508360025f82825461055991906108a8565b9250508190555060035f8673ffffffffffffffffffffffffffffffffffffffff1673ffffffffffffffffffffffffffffffffffffffff1681526020019081526020015f20549250505092915050565b5f80fd5b5f73ffffffffffffffffffffffffffffffffffffffff82169050919050565b5f6105d5826105ac565b9050919050565b6105e5816105cb565b81146105ef575f80fd5b50565b5f81359050610600816105dc565b92915050565b5f6020828403121561061b5761061a6105a8565b5b5f610628848285016105f2565b91505092915050565b5f819050919050565b61064381610631565b82525050565b5f60208201905061065c5f83018461063a565b92915050565b61066b81610631565b8114610675575f80fd5b50565b5f8135905061068681610662565b92915050565b5f80604083850312156106a2576106a16105a8565b5b5f6106af858286016105f2565b92505060206106c085828601610678565b9150509250929050565b7f4e487b71000000000000000000000000000000000000000000000000000000005f52601160045260245ffd5b5f61070182610631565b915061070c83610631565b925082820261071a81610631565b91508282048414831517610731576107306106ca565b5b5092915050565b5f61074282610631565b915061074d83610631565b9250828201905080821115610765576107646106ca565b5b92915050565b5f82825260208201905092915050565b7f4e6f7420656e6f75676820436174636f696e7320617661696c61626c652e00005f82015250565b5f6107af601e8361076b565b91506107ba8261077b565b602082019050919050565b5f6020820190508181035f8301526107dc816107a3565b9050919050565b7f4e487b71000000000000000000000000000000000000000000000000000000005f52601260045260245ffd5b5f61081a82610631565b915061082583610631565b925082610835576108346107e3565b5b828204905092915050565b7f4e6f7420656e6f75676820436174636f696e7320746f2073656c6c2e000000005f82015250565b5f610874601c8361076b565b915061087f82610840565b602082019050919050565b5f6020820190508181035f8301526108a181610868565b9050919050565b5f6108b282610631565b91506108bd83610631565b92508282039050818111156108d5576108d46106ca565b5b9291505056fea264697066735822122055c36e0d8a284dc659a80cc3a560904ad588349a7e002c925be1f18517a7b5e664736f6c634300081a0033",
					"opcodes": "PUSH1 0x80 PUSH1 0x40 MSTORE PUSH3 0xF4240 PUSH0 SSTORE PUSH2 0x3E8 PUSH1 0x1 SSTORE PUSH0 PUSH1 0x2 SSTORE CALLVALUE DUP1 ISZERO PUSH1 0x1E JUMPI PUSH0 DUP1 REVERT JUMPDEST POP PUSH2 0x911 DUP1 PUSH2 0x2C PUSH0 CODECOPY PUSH0 RETURN INVALID PUSH1 0x80 PUSH1 0x40 MSTORE CALLVALUE DUP1 ISZERO PUSH2 0xF JUMPI PUSH0 DUP1 REVERT JUMPDEST POP PUSH1 0x4 CALLDATASIZE LT PUSH2 0x7B JUMPI PUSH0 CALLDATALOAD PUSH1 0xE0 SHR DUP1 PUSH4 0xB1254360 GT PUSH2 0x59 JUMPI DUP1 PUSH4 0xB1254360 EQ PUSH2 0xFD JUMPI DUP1 PUSH4 0xF2DF9250 EQ PUSH2 0x11B JUMPI DUP1 PUSH4 0xF48BA880 EQ PUSH2 0x139 JUMPI DUP1 PUSH4 0xF59DC865 EQ PUSH2 0x169 JUMPI PUSH2 0x7B JUMP JUMPDEST DUP1 PUSH4 0x10C51C1B EQ PUSH2 0x7F JUMPI DUP1 PUSH4 0x25FCC8C9 EQ PUSH2 0xAF JUMPI DUP1 PUSH4 0x3069D4AE EQ PUSH2 0xCD JUMPI JUMPDEST PUSH0 DUP1 REVERT JUMPDEST PUSH2 0x99 PUSH1 0x4 DUP1 CALLDATASIZE SUB DUP2 ADD SWAP1 PUSH2 0x94 SWAP2 SWAP1 PUSH2 0x606 JUMP JUMPDEST PUSH2 0x199 JUMP JUMPDEST PUSH1 0x40 MLOAD PUSH2 0xA6 SWAP2 SWAP1 PUSH2 0x649 JUMP JUMPDEST PUSH1 0x40 MLOAD DUP1 SWAP2 SUB SWAP1 RETURN JUMPDEST PUSH2 0xB7 PUSH2 0x1DF JUMP JUMPDEST PUSH1 0x40 MLOAD PUSH2 0xC4 SWAP2 SWAP1 PUSH2 0x649 JUMP JUMPDEST PUSH1 0x40 MLOAD DUP1 SWAP2 SUB SWAP1 RETURN JUMPDEST PUSH2 0xE7 PUSH1 0x4 DUP1 CALLDATASIZE SUB DUP2 ADD SWAP1 PUSH2 0xE2 SWAP2 SWAP1 PUSH2 0x606 JUMP JUMPDEST PUSH2 0x1E5 JUMP JUMPDEST PUSH1 0x40 MLOAD PUSH2 0xF4 SWAP2 SWAP1 PUSH2 0x649 JUMP JUMPDEST PUSH1 0x40 MLOAD DUP1 SWAP2 SUB SWAP1 RETURN JUMPDEST PUSH2 0x105 PUSH2 0x22B JUMP JUMPDEST PUSH1 0x40 MLOAD PUSH2 0x112 SWAP2 SWAP1 PUSH2 0x649 JUMP JUMPDEST PUSH1 0x40 MLOAD DUP1 SWAP2 SUB SWAP1 RETURN JUMPDEST PUSH2 0x123 PUSH2 0x230 JUMP JUMPDEST PUSH1 0x40 MLOAD PUSH2 0x130 SWAP2 SWAP1 PUSH2 0x649 JUMP JUMPDEST PUSH1 0x40 MLOAD DUP1 SWAP2 SUB SWAP1 RETURN JUMPDEST PUSH2 0x153 PUSH1 0x4 DUP1 CALLDATASIZE SUB DUP2 ADD SWAP1 PUSH2 0x14E SWAP2 SWAP1 PUSH2 0x68C JUMP JUMPDEST PUSH2 0x236 JUMP JUMPDEST PUSH1 0x40 MLOAD PUSH2 0x160 SWAP2 SWAP1 PUSH2 0x649 JUMP JUMPDEST PUSH1 0x40 MLOAD DUP1 SWAP2 SUB SWAP1 RETURN JUMPDEST PUSH2 0x183 PUSH1 0x4 DUP1 CALLDATASIZE SUB DUP2 ADD SWAP1 PUSH2 0x17E SWAP2 SWAP1 PUSH2 0x68C JUMP JUMPDEST PUSH2 0x3E6 JUMP JUMPDEST PUSH1 0x40 MLOAD PUSH2 0x190 SWAP2 SWAP1 PUSH2 0x649 JUMP JUMPDEST PUSH1 0x40 MLOAD DUP1 SWAP2 SUB SWAP1 RETURN JUMPDEST PUSH0 PUSH1 0x4 PUSH0 DUP4 PUSH20 0xFFFFFFFFFFFFFFFFFFFFFFFFFFFFFFFFFFFFFFFF AND PUSH20 0xFFFFFFFFFFFFFFFFFFFFFFFFFFFFFFFFFFFFFFFF AND DUP2 MSTORE PUSH1 0x20 ADD SWAP1 DUP2 MSTORE PUSH1 0x20 ADD PUSH0 KECCAK256 SLOAD SWAP1 POP SWAP2 SWAP1 POP JUMP JUMPDEST PUSH1 0x1 SLOAD DUP2 JUMP JUMPDEST PUSH0 PUSH1 0x3 PUSH0 DUP4 PUSH20 0xFFFFFFFFFFFFFFFFFFFFFFFFFFFFFFFFFFFFFFFF AND PUSH20 0xFFFFFFFFFFFFFFFFFFFFFFFFFFFFFFFFFFFFFFFF AND DUP2 MSTORE PUSH1 0x20 ADD SWAP1 DUP2 MSTORE PUSH1 0x20 ADD PUSH0 KECCAK256 SLOAD SWAP1 POP SWAP2 SWAP1 POP JUMP JUMPDEST PUSH0 SLOAD DUP2 JUMP JUMPDEST PUSH1 0x2 SLOAD DUP2 JUMP JUMPDEST PUSH0 DUP2 PUSH0 SLOAD PUSH1 0x2 SLOAD PUSH1 0x1 SLOAD DUP4 PUSH2 0x24B SWAP2 SWAP1 PUSH2 0x6F7 JUMP JUMPDEST PUSH2 0x255 SWAP2 SWAP1 PUSH2 0x738 JUMP JUMPDEST GT ISZERO PUSH2 0x296 JUMPI PUSH1 0x40 MLOAD PUSH32 0x8C379A000000000000000000000000000000000000000000000000000000000 DUP2 MSTORE PUSH1 0x4 ADD PUSH2 0x28D SWAP1 PUSH2 0x7C5 JUMP JUMPDEST PUSH1 0x40 MLOAD DUP1 SWAP2 SUB SWAP1 REVERT JUMPDEST PUSH0 PUSH1 0x1 SLOAD DUP5 PUSH2 0x2A5 SWAP2 SWAP1 PUSH2 0x6F7 JUMP JUMPDEST SWAP1 POP DUP1 PUSH1 0x3 PUSH0 DUP8 PUSH20 0xFFFFFFFFFFFFFFFFFFFFFFFFFFFFFFFFFFFFFFFF AND PUSH20 0xFFFFFFFFFFFFFFFFFFFFFFFFFFFFFFFFFFFFFFFF AND DUP2 MSTORE PUSH1 0x20 ADD SWAP1 DUP2 MSTORE PUSH1 0x20 ADD PUSH0 KECCAK256 PUSH0 DUP3 DUP3 SLOAD PUSH2 0x2F3 SWAP2 SWAP1 PUSH2 0x738 JUMP JUMPDEST SWAP3 POP POP DUP2 SWAP1 SSTORE POP PUSH1 0x1 SLOAD PUSH1 0x3 PUSH0 DUP8 PUSH20 0xFFFFFFFFFFFFFFFFFFFFFFFFFFFFFFFFFFFFFFFF AND PUSH20 0xFFFFFFFFFFFFFFFFFFFFFFFFFFFFFFFFFFFFFFFF AND DUP2 MSTORE PUSH1 0x20 ADD SWAP1 DUP2 MSTORE PUSH1 0x20 ADD PUSH0 KECCAK256 SLOAD PUSH2 0x345 SWAP2 SWAP1 PUSH2 0x810 JUMP JUMPDEST PUSH1 0x4 PUSH0 DUP8 PUSH20 0xFFFFFFFFFFFFFFFFFFFFFFFFFFFFFFFFFFFFFFFF AND PUSH20 0xFFFFFFFFFFFFFFFFFFFFFFFFFFFFFFFFFFFFFFFF AND DUP2 MSTORE PUSH1 0x20 ADD SWAP1 DUP2 MSTORE PUSH1 0x20 ADD PUSH0 KECCAK256 DUP2 SWAP1 SSTORE POP DUP1 PUSH1 0x2 PUSH0 DUP3 DUP3 SLOAD PUSH2 0x397 SWAP2 SWAP1 PUSH2 0x738 JUMP JUMPDEST SWAP3 POP POP DUP2 SWAP1 SSTORE POP PUSH1 0x3 PUSH0 DUP7 PUSH20 0xFFFFFFFFFFFFFFFFFFFFFFFFFFFFFFFFFFFFFFFF AND PUSH20 0xFFFFFFFFFFFFFFFFFFFFFFFFFFFFFFFFFFFFFFFF AND DUP2 MSTORE PUSH1 0x20 ADD SWAP1 DUP2 MSTORE PUSH1 0x20 ADD PUSH0 KECCAK256 SLOAD SWAP3 POP POP POP SWAP3 SWAP2 POP POP JUMP JUMPDEST PUSH0 DUP3 DUP3 DUP1 PUSH1 0x3 PUSH0 DUP5 PUSH20 0xFFFFFFFFFFFFFFFFFFFFFFFFFFFFFFFFFFFFFFFF AND PUSH20 0xFFFFFFFFFFFFFFFFFFFFFFFFFFFFFFFFFFFFFFFF AND DUP2 MSTORE PUSH1 0x20 ADD SWAP1 DUP2 MSTORE PUSH1 0x20 ADD PUSH0 KECCAK256 SLOAD LT ISZERO PUSH2 0x469 JUMPI PUSH1 0x40 MLOAD PUSH32 0x8C379A000000000000000000000000000000000000000000000000000000000 DUP2 MSTORE PUSH1 0x4 ADD PUSH2 0x460 SWAP1 PUSH2 0x88A JUMP JUMPDEST PUSH1 0x40 MLOAD DUP1 SWAP2 SUB SWAP1 REVERT JUMPDEST DUP4 PUSH1 0x3 PUSH0 DUP8 PUSH20 0xFFFFFFFFFFFFFFFFFFFFFFFFFFFFFFFFFFFFFFFF AND PUSH20 0xFFFFFFFFFFFFFFFFFFFFFFFFFFFFFFFFFFFFFFFF AND DUP2 MSTORE PUSH1 0x20 ADD SWAP1 DUP2 MSTORE PUSH1 0x20 ADD PUSH0 KECCAK256 PUSH0 DUP3 DUP3 SLOAD PUSH2 0x4B5 SWAP2 SWAP1 PUSH2 0x8A8 JUMP JUMPDEST SWAP3 POP POP DUP2 SWAP1 SSTORE POP PUSH1 0x1 SLOAD PUSH1 0x3 PUSH0 DUP8 PUSH20 0xFFFFFFFFFFFFFFFFFFFFFFFFFFFFFFFFFFFFFFFF AND PUSH20 0xFFFFFFFFFFFFFFFFFFFFFFFFFFFFFFFFFFFFFFFF AND DUP2 MSTORE PUSH1 0x20 ADD SWAP1 DUP2 MSTORE PUSH1 0x20 ADD PUSH0 KECCAK256 SLOAD PUSH2 0x507 SWAP2 SWAP1 PUSH2 0x810 JUMP JUMPDEST PUSH1 0x4 PUSH0 DUP8 PUSH20 0xFFFFFFFFFFFFFFFFFFFFFFFFFFFFFFFFFFFFFFFF AND PUSH20 0xFFFFFFFFFFFFFFFFFFFFFFFFFFFFFFFFFFFFFFFF AND DUP2 MSTORE PUSH1 0x20 ADD SWAP1 DUP2 MSTORE PUSH1 0x20 ADD PUSH0 KECCAK256 DUP2 SWAP1 SSTORE POP DUP4 PUSH1 0x2 PUSH0 DUP3 DUP3 SLOAD PUSH2 0x559 SWAP2 SWAP1 PUSH2 0x8A8 JUMP JUMPDEST SWAP3 POP POP DUP2 SWAP1 SSTORE POP PUSH1 0x3 PUSH0 DUP7 PUSH20 0xFFFFFFFFFFFFFFFFFFFFFFFFFFFFFFFFFFFFFFFF AND PUSH20 0xFFFFFFFFFFFFFFFFFFFFFFFFFFFFFFFFFFFFFFFF AND DUP2 MSTORE PUSH1 0x20 ADD SWAP1 DUP2 MSTORE PUSH1 0x20 ADD PUSH0 KECCAK256 SLOAD SWAP3 POP POP POP SWAP3 SWAP2 POP POP JUMP JUMPDEST PUSH0 DUP1 REVERT JUMPDEST PUSH0 PUSH20 0xFFFFFFFFFFFFFFFFFFFFFFFFFFFFFFFFFFFFFFFF DUP3 AND SWAP1 POP SWAP2 SWAP1 POP JUMP JUMPDEST PUSH0 PUSH2 0x5D5 DUP3 PUSH2 0x5AC JUMP JUMPDEST SWAP1 POP SWAP2 SWAP1 POP JUMP JUMPDEST PUSH2 0x5E5 DUP2 PUSH2 0x5CB JUMP JUMPDEST DUP2 EQ PUSH2 0x5EF JUMPI PUSH0 DUP1 REVERT JUMPDEST POP JUMP JUMPDEST PUSH0 DUP2 CALLDATALOAD SWAP1 POP PUSH2 0x600 DUP2 PUSH2 0x5DC JUMP JUMPDEST SWAP3 SWAP2 POP POP JUMP JUMPDEST PUSH0 PUSH1 0x20 DUP3 DUP5 SUB SLT ISZERO PUSH2 0x61B JUMPI PUSH2 0x61A PUSH2 0x5A8 JUMP JUMPDEST JUMPDEST PUSH0 PUSH2 0x628 DUP5 DUP3 DUP6 ADD PUSH2 0x5F2 JUMP JUMPDEST SWAP2 POP POP SWAP3 SWAP2 POP POP JUMP JUMPDEST PUSH0 DUP2 SWAP1 POP SWAP2 SWAP1 POP JUMP JUMPDEST PUSH2 0x643 DUP2 PUSH2 0x631 JUMP JUMPDEST DUP3 MSTORE POP POP JUMP JUMPDEST PUSH0 PUSH1 0x20 DUP3 ADD SWAP1 POP PUSH2 0x65C PUSH0 DUP4 ADD DUP5 PUSH2 0x63A JUMP JUMPDEST SWAP3 SWAP2 POP POP JUMP JUMPDEST PUSH2 0x66B DUP2 PUSH2 0x631 JUMP JUMPDEST DUP2 EQ PUSH2 0x675 JUMPI PUSH0 DUP1 REVERT JUMPDEST POP JUMP JUMPDEST PUSH0 DUP2 CALLDATALOAD SWAP1 POP PUSH2 0x686 DUP2 PUSH2 0x662 JUMP JUMPDEST SWAP3 SWAP2 POP POP JUMP JUMPDEST PUSH0 DUP1 PUSH1 0x40 DUP4 DUP6 SUB SLT ISZERO PUSH2 0x6A2 JUMPI PUSH2 0x6A1 PUSH2 0x5A8 JUMP JUMPDEST JUMPDEST PUSH0 PUSH2 0x6AF DUP6 DUP3 DUP7 ADD PUSH2 0x5F2 JUMP JUMPDEST SWAP3 POP POP PUSH1 0x20 PUSH2 0x6C0 DUP6 DUP3 DUP7 ADD PUSH2 0x678 JUMP JUMPDEST SWAP2 POP POP SWAP3 POP SWAP3 SWAP1 POP JUMP JUMPDEST PUSH32 0x4E487B7100000000000000000000000000000000000000000000000000000000 PUSH0 MSTORE PUSH1 0x11 PUSH1 0x4 MSTORE PUSH1 0x24 PUSH0 REVERT JUMPDEST PUSH0 PUSH2 0x701 DUP3 PUSH2 0x631 JUMP JUMPDEST SWAP2 POP PUSH2 0x70C DUP4 PUSH2 0x631 JUMP JUMPDEST SWAP3 POP DUP3 DUP3 MUL PUSH2 0x71A DUP2 PUSH2 0x631 JUMP JUMPDEST SWAP2 POP DUP3 DUP3 DIV DUP5 EQ DUP4 ISZERO OR PUSH2 0x731 JUMPI PUSH2 0x730 PUSH2 0x6CA JUMP JUMPDEST JUMPDEST POP SWAP3 SWAP2 POP POP JUMP JUMPDEST PUSH0 PUSH2 0x742 DUP3 PUSH2 0x631 JUMP JUMPDEST SWAP2 POP PUSH2 0x74D DUP4 PUSH2 0x631 JUMP JUMPDEST SWAP3 POP DUP3 DUP3 ADD SWAP1 POP DUP1 DUP3 GT ISZERO PUSH2 0x765 JUMPI PUSH2 0x764 PUSH2 0x6CA JUMP JUMPDEST JUMPDEST SWAP3 SWAP2 POP POP JUMP JUMPDEST PUSH0 DUP3 DUP3 MSTORE PUSH1 0x20 DUP3 ADD SWAP1 POP SWAP3 SWAP2 POP POP JUMP JUMPDEST PUSH32 0x4E6F7420656E6F75676820436174636F696E7320617661696C61626C652E0000 PUSH0 DUP3 ADD MSTORE POP JUMP JUMPDEST PUSH0 PUSH2 0x7AF PUSH1 0x1E DUP4 PUSH2 0x76B JUMP JUMPDEST SWAP2 POP PUSH2 0x7BA DUP3 PUSH2 0x77B JUMP JUMPDEST PUSH1 0x20 DUP3 ADD SWAP1 POP SWAP2 SWAP1 POP JUMP JUMPDEST PUSH0 PUSH1 0x20 DUP3 ADD SWAP1 POP DUP2 DUP2 SUB PUSH0 DUP4 ADD MSTORE PUSH2 0x7DC DUP2 PUSH2 0x7A3 JUMP JUMPDEST SWAP1 POP SWAP2 SWAP1 POP JUMP JUMPDEST PUSH32 0x4E487B7100000000000000000000000000000000000000000000000000000000 PUSH0 MSTORE PUSH1 0x12 PUSH1 0x4 MSTORE PUSH1 0x24 PUSH0 REVERT JUMPDEST PUSH0 PUSH2 0x81A DUP3 PUSH2 0x631 JUMP JUMPDEST SWAP2 POP PUSH2 0x825 DUP4 PUSH2 0x631 JUMP JUMPDEST SWAP3 POP DUP3 PUSH2 0x835 JUMPI PUSH2 0x834 PUSH2 0x7E3 JUMP JUMPDEST JUMPDEST DUP3 DUP3 DIV SWAP1 POP SWAP3 SWAP2 POP POP JUMP JUMPDEST PUSH32 0x4E6F7420656E6F75676820436174636F696E7320746F2073656C6C2E00000000 PUSH0 DUP3 ADD MSTORE POP JUMP JUMPDEST PUSH0 PUSH2 0x874 PUSH1 0x1C DUP4 PUSH2 0x76B JUMP JUMPDEST SWAP2 POP PUSH2 0x87F DUP3 PUSH2 0x840 JUMP JUMPDEST PUSH1 0x20 DUP3 ADD SWAP1 POP SWAP2 SWAP1 POP JUMP JUMPDEST PUSH0 PUSH1 0x20 DUP3 ADD SWAP1 POP DUP2 DUP2 SUB PUSH0 DUP4 ADD MSTORE PUSH2 0x8A1 DUP2 PUSH2 0x868 JUMP JUMPDEST SWAP1 POP SWAP2 SWAP1 POP JUMP JUMPDEST PUSH0 PUSH2 0x8B2 DUP3 PUSH2 0x631 JUMP JUMPDEST SWAP2 POP PUSH2 0x8BD DUP4 PUSH2 0x631 JUMP JUMPDEST SWAP3 POP DUP3 DUP3 SUB SWAP1 POP DUP2 DUP2 GT ISZERO PUSH2 0x8D5 JUMPI PUSH2 0x8D4 PUSH2 0x6CA JUMP JUMPDEST JUMPDEST SWAP3 SWAP2 POP POP JUMP INVALID LOG2 PUSH5 0x6970667358 0x22 SLT KECCAK256 SSTORE 0xC3 PUSH15 0xD8A284DC659A80CC3A560904AD588 CALLVALUE SWAP11 PUSH31 0x2C925BE1F18517A7B5E664736F6C634300081A0033000000000000000000 "
				},
				"gasEstimates": {
					"creation": {
						"codeDepositCost": "464200",
						"executionCost": "49713",
						"totalCost": "513913"
					},
					"external": {
						"buy_catcoins(address,uint256)": "infinite",
						"equity_in_catcoins(address)": "2874",
						"equity_in_usd(address)": "2830",
						"max_catcoins()": "2424",
						"sell_catcoins(address,uint256)": "infinite",
						"total_catcoins_bought()": "2447",
						"usd_to_catcoin()": "2448"
					}
				},
				"methodIdentifiers": {
					"buy_catcoins(address,uint256)": "f48ba880",
					"equity_in_catcoins(address)": "3069d4ae",
					"equity_in_usd(address)": "10c51c1b",
					"max_catcoins()": "b1254360",
					"sell_catcoins(address,uint256)": "f59dc865",
					"total_catcoins_bought()": "f2df9250",
					"usd_to_catcoin()": "25fcc8c9"
				}
			},
			"storageLayout": {
				"storage": [
					{
						"astId": 4,
						"contract": "catcoin.sol:catcoin_ico",
						"label": "max_catcoins",
						"offset": 0,
						"slot": "0",
						"type": "t_uint256"
					},
					{
						"astId": 7,
						"contract": "catcoin.sol:catcoin_ico",
						"label": "usd_to_catcoin",
						"offset": 0,
						"slot": "1",
						"type": "t_uint256"
					},
					{
						"astId": 10,
						"contract": "catcoin.sol:catcoin_ico",
						"label": "total_catcoins_bought",
						"offset": 0,
						"slot": "2",
						"type": "t_uint256"
					},
					{
						"astId": 14,
						"contract": "catcoin.sol:catcoin_ico",
						"label": "equity_catcoins",
						"offset": 0,
						"slot": "3",
						"type": "t_mapping(t_address,t_uint256)"
					},
					{
						"astId": 18,
						"contract": "catcoin.sol:catcoin_ico",
						"label": "equity_usd",
						"offset": 0,
						"slot": "4",
						"type": "t_mapping(t_address,t_uint256)"
					}
				],
				"types": {
					"t_address": {
						"encoding": "inplace",
						"label": "address",
						"numberOfBytes": "20"
					},
					"t_mapping(t_address,t_uint256)": {
						"encoding": "mapping",
						"key": "t_address",
						"label": "mapping(address => uint256)",
						"numberOfBytes": "32",
						"value": "t_uint256"
					},
					"t_uint256": {
						"encoding": "inplace",
						"label": "uint256",
						"numberOfBytes": "32"
					}
				}
			},
			"userdoc": {
				"kind": "user",
				"methods": {},
				"version": 1
			}
		}
	}
}